S0130000736572766F2D747269616C2E7372656399
S11300000C9434000C9446000C9446000C94460066
S11300100C9446000C9446000C9446000C94460044
S11300200C9446000C9446000C9446000C94460034
S11300300C9446000C9486000C9446000C944600E4
S11300400C9446000C9446000C94B8000C94E60002
S11300500C9446000C9446000C9446000C94460004
S11300600C9446000C94460011241FBECFEFD8E038
S1130070DEBFCDBF21E0A0E0B1E001C01D92A534F8
S1130080B207E1F70E946D000C9410010C9400007B
S1130090FC01408121E030E002C0220F331F6A9549
S11300A0E2F7242B20830895FC01908121E030E0C5
S11300B002C0220F331F6A95E2F72095292320837B
S11300C00895FC01408121E030E002C0220F331F7B
S11300D06A95E2F724272083089563E084E290E0A0
S11300E00E94480063E085E290E00E945400E1E849
S11300F0F0E08081897F8083808181608083EFE666
S1130100F0E08081816080837894FFCF1F920F920A
S11301100FB60F9211242F933F934F935F936F93D6
S11301207F938F939F93AF93BF93EF93FF9363E07A
S113013084E290E00E94610086E791E00197F1F784
S113014000C0000063E084E290E00E946100FF913F
S1130150EF91BF91AF919F918F917F916F915F913B
S11301604F913F912F910F900FBE0F901F901895B4
S11301701F920F920FB60F9211242F938F939F9378
S1130180EF93FF938091C0002091C6008C71E091A1
S11301900201EF5FEF7190910101E91739F0E093EB
S11301A00201F0E0EB5FFE4F208301C082E09091FA
S11301B00001892B80930001FF91EF919F918F9112
S11301C02F910F900FBE0F901F9018951F920F92B2
S11301D00FB60F9211248F939F93EF93FF939091F7
S11301E0040180910301981769F0E0910301EF5F26
S11301F0EF71E0930301F0E0EB5DFE4F80818093AB
S1130200C60005C0E1ECF0E080818F7D8083FF9122
S1130210EF919F918F910F900FBE0F901F901895A3
S1070220F894FFCF7C
S9030000FC
